{
  "contractName": "RouletteCC",
  "abi": [
    {
      "inputs": [],
      "stateMutability": "nonpayable",
      "type": "constructor"
    },
    {
      "anonymous": false,
      "inputs": [
        {
          "indexed": false,
          "internalType": "address",
          "name": "player_address",
          "type": "address"
        },
        {
          "indexed": false,
          "internalType": "uint256",
          "name": "value",
          "type": "uint256"
        },
        {
          "indexed": false,
          "internalType": "string",
          "name": "game",
          "type": "string"
        },
        {
          "indexed": false,
          "internalType": "bool",
          "name": "results",
          "type": "bool"
        }
      ],
      "name": "PlayTheGame",
      "type": "event"
    },
    {
      "anonymous": false,
      "inputs": [
        {
          "indexed": false,
          "internalType": "address",
          "name": "new_admin_address",
          "type": "address"
        }
      ],
      "name": "UpdateAdminAdress",
      "type": "event"
    },
    {
      "inputs": [],
      "name": "last_player_address",
      "outputs": [
        {
          "internalType": "address",
          "name": "",
          "type": "address"
        }
      ],
      "stateMutability": "view",
      "type": "function"
    },
    {
      "inputs": [],
      "name": "last_win_num",
      "outputs": [
        {
          "internalType": "uint256",
          "name": "",
          "type": "uint256"
        }
      ],
      "stateMutability": "view",
      "type": "function"
    },
    {
      "inputs": [],
      "name": "owner_address",
      "outputs": [
        {
          "internalType": "address",
          "name": "",
          "type": "address"
        }
      ],
      "stateMutability": "view",
      "type": "function"
    },
    {
      "inputs": [
        {
          "internalType": "uint256",
          "name": "",
          "type": "uint256"
        }
      ],
      "name": "red_number",
      "outputs": [
        {
          "internalType": "uint16",
          "name": "",
          "type": "uint16"
        }
      ],
      "stateMutability": "view",
      "type": "function"
    },
    {
      "inputs": [],
      "name": "token",
      "outputs": [
        {
          "internalType": "contract CasinoCoin",
          "name": "",
          "type": "address"
        }
      ],
      "stateMutability": "view",
      "type": "function"
    },
    {
      "inputs": [
        {
          "internalType": "address",
          "name": "new_admin",
          "type": "address"
        }
      ],
      "name": "ChangeOwner",
      "outputs": [],
      "stateMutability": "nonpayable",
      "type": "function"
    },
    {
      "inputs": [
        {
          "internalType": "uint256",
          "name": "value",
          "type": "uint256"
        }
      ],
      "name": "Red",
      "outputs": [
        {
          "internalType": "string",
          "name": "",
          "type": "string"
        }
      ],
      "stateMutability": "payable",
      "type": "function"
    },
    {
      "inputs": [
        {
          "internalType": "uint256",
          "name": "value",
          "type": "uint256"
        }
      ],
      "name": "Black",
      "outputs": [
        {
          "internalType": "string",
          "name": "",
          "type": "string"
        }
      ],
      "stateMutability": "payable",
      "type": "function"
    },
    {
      "inputs": [
        {
          "internalType": "uint16",
          "name": "number",
          "type": "uint16"
        },
        {
          "internalType": "uint256",
          "name": "value",
          "type": "uint256"
        }
      ],
      "name": "BetOnNumber",
      "outputs": [
        {
          "internalType": "string",
          "name": "",
          "type": "string"
        }
      ],
      "stateMutability": "payable",
      "type": "function"
    },
    {
      "inputs": [
        {
          "internalType": "uint256",
          "name": "value",
          "type": "uint256"
        }
      ],
      "name": "LowerHalf",
      "outputs": [
        {
          "internalType": "string",
          "name": "",
          "type": "string"
        }
      ],
      "stateMutability": "payable",
      "type": "function"
    },
    {
      "inputs": [],
      "name": "UpperHalf",
      "outputs": [
        {
          "internalType": "string",
          "name": "",
          "type": "string"
        }
      ],
      "stateMutability": "payable",
      "type": "function"
    },
    {
      "inputs": [],
      "name": "Odd",
      "outputs": [
        {
          "internalType": "string",
          "name": "",
          "type": "string"
        }
      ],
      "stateMutability": "payable",
      "type": "function"
    },
    {
      "inputs": [],
      "name": "NoOdd",
      "outputs": [
        {
          "internalType": "string",
          "name": "",
          "type": "string"
        }
      ],
      "stateMutability": "payable",
      "type": "function"
    }
  ],
  "bytecode": "0x6080604052604051806104a00160405280600060ff168152602001600160ff168152602001600060ff168152602001600160ff168152602001600060ff168152602001600160ff168152602001600060ff168152602001600160ff168152602001600060ff168152602001600160ff168152602001600060ff168152602001600060ff168152602001600160ff168152602001600060ff168152602001600160ff168152602001600060ff168152602001600160ff168152602001600060ff168152602001600160ff168152602001600160ff168152602001600060ff168152602001600160ff168152602001600060ff168152602001600160ff168152602001600060ff168152602001600160ff168152602001600060ff168152602001600160ff168152602001600060ff168152602001600060ff168152602001600160ff168152602001600060ff168152602001600160ff168152602001600060ff168152602001600160ff168152602001600060ff168152602001600160ff16815250600490602562000192929190620001e7565b50348015620001a057600080fd5b50336000806101000a81548173ffffffffffffffffffffffffffffffffffffffff021916908373ffffffffffffffffffffffffffffffffffffffff160217905550620002cb565b82805482825590600052602060002090600f01601090048101928215620002845791602002820160005b838211156200025257835183826101000a81548161ffff021916908360ff160217905550926020019260020160208160010104928301926001030262000211565b8015620002825782816101000a81549061ffff021916905560020160208160010104928301926001030262000252565b505b50905062000293919062000297565b5090565b620002c891905b80821115620002c457600081816101000a81549061ffff0219169055506001016200029e565b5090565b90565b6121ac80620002db6000396000f3fe6080604052600436106100c25760003560e01c80633f3859881161007f578063e47c241311610059578063e47c2413146104ce578063f226961014610583578063f28532921461062a578063fc0c546a1461067b576100c2565b80633f3859881461039d57806380edef8e146103f4578063e3a5ecb61461044b576100c2565b80630c9cbedf146100c75780631579793f1461011e5780631a726927146101c55780631bffc0cb146101f057806324b1b1d41461027357806339191f55146102f6575b600080fd5b3480156100d357600080fd5b50610100600480360360208110156100ea57600080fd5b81019080803590602001909291905050506106d2565b604051808261ffff1661ffff16815260200191505060405180910390f35b61014a6004803603602081101561013457600080fd5b8101908080359060200190929190505050610707565b6040518080602001828103825283818151815260200191508051906020019080838360005b8381101561018a57808201518184015260208101905061016f565b50505050905090810190601f1680156101b75780820380516001836020036101000a031916815260200191505b509250505060405180910390f35b3480156101d157600080fd5b506101da610ae0565b6040518082815260200191505060405180910390f35b6101f8610ae6565b6040518080602001828103825283818151815260200191508051906020019080838360005b8381101561023857808201518184015260208101905061021d565b50505050905090810190601f1680156102655780820380516001836020036101000a031916815260200191505b509250505060405180910390f35b61027b610d33565b6040518080602001828103825283818151815260200191508051906020019080838360005b838110156102bb5780820151818401526020810190506102a0565b50505050905090810190601f1680156102e85780820380516001836020036101000a031916815260200191505b509250505060405180910390f35b6103226004803603602081101561030c57600080fd5b8101908080359060200190929190505050610f76565b6040518080602001828103825283818151815260200191508051906020019080838360005b83811015610362578082015181840152602081019050610347565b50505050905090810190601f16801561038f5780820380516001836020036101000a031916815260200191505b509250505060405180910390f35b3480156103a957600080fd5b506103b261137a565b604051808273ffffffffffffffffffffffffffffffffffffffff1673ffffffffffffffffffffffffffffffffffffffff16815260200191505060405180910390f35b34801561040057600080fd5b506104096113a0565b604051808273ffffffffffffffffffffffffffffffffffffffff1673ffffffffffffffffffffffffffffffffffffffff16815260200191505060405180910390f35b6104536113c5565b6040518080602001828103825283818151815260200191508051906020019080838360005b83811015610493578082015181840152602081019050610478565b50505050905090810190601f1680156104c05780820380516001836020036101000a031916815260200191505b509250505060405180910390f35b610508600480360360408110156104e457600080fd5b81019080803561ffff16906020019092919080359060200190929190505050611621565b6040518080602001828103825283818151815260200191508051906020019080838360005b8381101561054857808201518184015260208101905061052d565b50505050905090810190601f1680156105755780820380516001836020036101000a031916815260200191505b509250505060405180910390f35b6105af6004803603602081101561059957600080fd5b81019080803590602001909291905050506119ee565b6040518080602001828103825283818151815260200191508051906020019080838360005b838110156105ef5780820151818401526020810190506105d4565b50505050905090810190601f16801561061c5780820380516001836020036101000a031916815260200191505b509250505060405180910390f35b34801561063657600080fd5b506106796004803603602081101561064d57600080fd5b81019080803573ffffffffffffffffffffffffffffffffffffffff169060200190929190505050611dfa565b005b34801561068757600080fd5b50610690611f62565b604051808273ffffffffffffffffffffffffffffffffffffffff1673ffffffffffffffffffffffffffffffffffffffff16815260200191505060405180910390f35b600481815481106106df57fe5b9060005260206000209060109182820401919006600202915054906101000a900461ffff1681565b6060600360009054906101000a900473ffffffffffffffffffffffffffffffffffffffff1673ffffffffffffffffffffffffffffffffffffffff1663ef9308bf33306040518363ffffffff1660e01b8152600401808373ffffffffffffffffffffffffffffffffffffffff1673ffffffffffffffffffffffffffffffffffffffff1681526020018273ffffffffffffffffffffffffffffffffffffffff1673ffffffffffffffffffffffffffffffffffffffff1681526020019250505060206040518083038186803b1580156107dc57600080fd5b505afa1580156107f0573d6000803e3d6000fd5b505050506040513d602081101561080657600080fd5b810190808051906020019092919050505082111561088c576040517f08c379a00000000000000000000000000000000000000000000000000000000081526004018080602001828103825260148152602001807f416c6c6f7720776974686472617720666972737400000000000000000000000081525060200191505060405180910390fd5b33600160006101000a81548173ffffffffffffffffffffffffffffffffffffffff021916908373ffffffffffffffffffffffffffffffffffffffff1602179055506108d5611f88565b6002819055506012600254111580156108f15750600060025414155b156109f1576109033360023402611fc8565b7f7c703c65b5b6a58c33a3a9afdaaba49f09c76e6dd631a22a835dd83b4d8df8d433346001604051808473ffffffffffffffffffffffffffffffffffffffff1673ffffffffffffffffffffffffffffffffffffffff1681526020018381526020018060200183151515158152602001828103825260098152602001807f4c6f77657248616c66000000000000000000000000000000000000000000000081525060200194505050505060405180910390a16040518060400160405280601981526020017f596f7520776f6e2120436f6e67726174756c6174696f6e7321000000000000008152509050610adb565b7f7c703c65b5b6a58c33a3a9afdaaba49f09c76e6dd631a22a835dd83b4d8df8d433346000604051808473ffffffffffffffffffffffffffffffffffffffff1673ffffffffffffffffffffffffffffffffffffffff1681526020018381526020018060200183151515158152602001828103825260098152602001807f4c6f77657248616c66000000000000000000000000000000000000000000000081525060200194505050505060405180910390a16040518060400160405280601481526020017f596f75206c6f73652e2054727920616761696e2e00000000000000000000000081525090505b919050565b60025481565b606033600160006101000a81548173ffffffffffffffffffffffffffffffffffffffff021916908373ffffffffffffffffffffffffffffffffffffffff160217905550610b31611f88565b60028190555060016002805481610b4457fe5b061415610c4657610b583360023402611fc8565b7f7c703c65b5b6a58c33a3a9afdaaba49f09c76e6dd631a22a835dd83b4d8df8d433346001604051808473ffffffffffffffffffffffffffffffffffffffff1673ffffffffffffffffffffffffffffffffffffffff1681526020018381526020018060200183151515158152602001828103825260058152602001807f4e6f4f646400000000000000000000000000000000000000000000000000000081525060200194505050505060405180910390a16040518060400160405280601981526020017f596f7520776f6e2120436f6e67726174756c6174696f6e7321000000000000008152509050610d30565b7f7c703c65b5b6a58c33a3a9afdaaba49f09c76e6dd631a22a835dd83b4d8df8d433346000604051808473ffffffffffffffffffffffffffffffffffffffff1673ffffffffffffffffffffffffffffffffffffffff1681526020018381526020018060200183151515158152602001828103825260058152602001807f4e6f4f646400000000000000000000000000000000000000000000000000000081525060200194505050505060405180910390a16040518060400160405280601481526020017f596f75206c6f73652e2054727920616761696e2e00000000000000000000000081525090505b90565b606033600160006101000a81548173ffffffffffffffffffffffffffffffffffffffff021916908373ffffffffffffffffffffffffffffffffffffffff160217905550610d7e611f88565b600281905550601360025410610e8957610d9b3360023402611fc8565b7f7c703c65b5b6a58c33a3a9afdaaba49f09c76e6dd631a22a835dd83b4d8df8d433346001604051808473ffffffffffffffffffffffffffffffffffffffff1673ffffffffffffffffffffffffffffffffffffffff1681526020018381526020018060200183151515158152602001828103825260098152602001807f557070657248616c66000000000000000000000000000000000000000000000081525060200194505050505060405180910390a16040518060400160405280601981526020017f596f7520776f6e2120436f6e67726174756c6174696f6e7321000000000000008152509050610f73565b7f7c703c65b5b6a58c33a3a9afdaaba49f09c76e6dd631a22a835dd83b4d8df8d433346000604051808473ffffffffffffffffffffffffffffffffffffffff1673ffffffffffffffffffffffffffffffffffffffff1681526020018381526020018060200183151515158152602001828103825260098152602001807f557070657248616c66000000000000000000000000000000000000000000000081525060200194505050505060405180910390a16040518060400160405280601481526020017f596f75206c6f73652e2054727920616761696e2e00000000000000000000000081525090505b90565b6060600360009054906101000a900473ffffffffffffffffffffffffffffffffffffffff1673ffffffffffffffffffffffffffffffffffffffff1663ef9308bf33306040518363ffffffff1660e01b8152600401808373ffffffffffffffffffffffffffffffffffffffff1673ffffffffffffffffffffffffffffffffffffffff1681526020018273ffffffffffffffffffffffffffffffffffffffff1673ffffffffffffffffffffffffffffffffffffffff1681526020019250505060206040518083038186803b15801561104b57600080fd5b505afa15801561105f573d6000803e3d6000fd5b505050506040513d602081101561107557600080fd5b81019080805190602001909291905050508211156110fb576040517f08c379a00000000000000000000000000000000000000000000000000000000081526004018080602001828103825260148152602001807f416c6c6f7720776974686472617720666972737400000000000000000000000081525060200191505060405180910390fd5b33600160006101000a81548173ffffffffffffffffffffffffffffffffffffffff021916908373ffffffffffffffffffffffffffffffffffffffff160217905550611144611f88565b600281905550600160046002548154811061115b57fe5b90600052602060002090601091828204019190066002029054906101000a900461ffff1661ffff161415611281576111933383611fc8565b7f7c703c65b5b6a58c33a3a9afdaaba49f09c76e6dd631a22a835dd83b4d8df8d433346001604051808473ffffffffffffffffffffffffffffffffffffffff1673ffffffffffffffffffffffffffffffffffffffff1681526020018381526020018060200183151515158152602001828103825260038152602001807f526564000000000000000000000000000000000000000000000000000000000081525060200194505050505060405180910390a16040518060400160405280601981526020017f596f7520776f6e2120436f6e67726174756c6174696f6e7321000000000000008152509050611375565b61128b338361208d565b7f7c703c65b5b6a58c33a3a9afdaaba49f09c76e6dd631a22a835dd83b4d8df8d433346000604051808473ffffffffffffffffffffffffffffffffffffffff1673ffffffffffffffffffffffffffffffffffffffff1681526020018381526020018060200183151515158152602001828103825260038152602001807f526564000000000000000000000000000000000000000000000000000000000081525060200194505050505060405180910390a16040518060400160405280601481526020017f596f75206c6f73652e2054727920616761696e2e00000000000000000000000081525090505b919050565b600160009054906101000a900473ffffffffffffffffffffffffffffffffffffffff1681565b6000809054906101000a900473ffffffffffffffffffffffffffffffffffffffff1681565b606033600160006101000a81548173ffffffffffffffffffffffffffffffffffffffff021916908373ffffffffffffffffffffffffffffffffffffffff160217905550611410611f88565b6002819055506000600280548161142357fe5b061480156114345750600060025414155b15611534576114463360023402611fc8565b7f7c703c65b5b6a58c33a3a9afdaaba49f09c76e6dd631a22a835dd83b4d8df8d433346001604051808473ffffffffffffffffffffffffffffffffffffffff1673ffffffffffffffffffffffffffffffffffffffff1681526020018381526020018060200183151515158152602001828103825260038152602001807f4f6464000000000000000000000000000000000000000000000000000000000081525060200194505050505060405180910390a16040518060400160405280601981526020017f596f7520776f6e2120436f6e67726174756c6174696f6e732100000000000000815250905061161e565b7f7c703c65b5b6a58c33a3a9afdaaba49f09c76e6dd631a22a835dd83b4d8df8d433346000604051808473ffffffffffffffffffffffffffffffffffffffff1673ffffffffffffffffffffffffffffffffffffffff1681526020018381526020018060200183151515158152602001828103825260038152602001807f4f6464000000000000000000000000000000000000000000000000000000000081525060200194505050505060405180910390a16040518060400160405280601481526020017f596f75206c6f73652e2054727920616761696e2e00000000000000000000000081525090505b90565b6060600360009054906101000a900473ffffffffffffffffffffffffffffffffffffffff1673ffffffffffffffffffffffffffffffffffffffff1663ef9308bf33306040518363ffffffff1660e01b8152600401808373ffffffffffffffffffffffffffffffffffffffff1673ffffffffffffffffffffffffffffffffffffffff1681526020018273ffffffffffffffffffffffffffffffffffffffff1673ffffffffffffffffffffffffffffffffffffffff1681526020019250505060206040518083038186803b1580156116f657600080fd5b505afa15801561170a573d6000803e3d6000fd5b505050506040513d602081101561172057600080fd5b81019080805190602001909291905050508211156117a6576040517f08c379a00000000000000000000000000000000000000000000000000000000081526004018080602001828103825260148152602001807f416c6c6f7720776974686472617720666972737400000000000000000000000081525060200191505060405180910390fd5b33600160006101000a81548173ffffffffffffffffffffffffffffffffffffffff021916908373ffffffffffffffffffffffffffffffffffffffff1602179055506117ef611f88565b6002819055508261ffff1660025414156118fe576118103360233402611fc8565b7f7c703c65b5b6a58c33a3a9afdaaba49f09c76e6dd631a22a835dd83b4d8df8d433346001604051808473ffffffffffffffffffffffffffffffffffffffff1673ffffffffffffffffffffffffffffffffffffffff16815260200183815260200180602001831515151581526020018281038252600b8152602001807f4265744f6e4e756d62657200000000000000000000000000000000000000000081525060200194505050505060405180910390a16040518060400160405280601981526020017f596f7520776f6e2120436f6e67726174756c6174696f6e73210000000000000081525090506119e8565b7f7c703c65b5b6a58c33a3a9afdaaba49f09c76e6dd631a22a835dd83b4d8df8d433346000604051808473ffffffffffffffffffffffffffffffffffffffff1673ffffffffffffffffffffffffffffffffffffffff16815260200183815260200180602001831515151581526020018281038252600b8152602001807f4265744f6e4e756d62657200000000000000000000000000000000000000000081525060200194505050505060405180910390a16040518060400160405280601481526020017f596f75206c6f73652e2054727920616761696e2e00000000000000000000000081525090505b92915050565b6060600360009054906101000a900473ffffffffffffffffffffffffffffffffffffffff1673ffffffffffffffffffffffffffffffffffffffff1663ef9308bf33306040518363ffffffff1660e01b8152600401808373ffffffffffffffffffffffffffffffffffffffff1673ffffffffffffffffffffffffffffffffffffffff1681526020018273ffffffffffffffffffffffffffffffffffffffff1673ffffffffffffffffffffffffffffffffffffffff1681526020019250505060206040518083038186803b158015611ac357600080fd5b505afa158015611ad7573d6000803e3d6000fd5b505050506040513d6020811015611aed57600080fd5b8101908080519060200190929190505050821115611b73576040517f08c379a00000000000000000000000000000000000000000000000000000000081526004018080602001828103825260148152602001807f416c6c6f7720776974686472617720666972737400000000000000000000000081525060200191505060405180910390fd5b33600160006101000a81548173ffffffffffffffffffffffffffffffffffffffff021916908373ffffffffffffffffffffffffffffffffffffffff160217905550611bbc611f88565b6002819055506000600460025481548110611bd357fe5b90600052602060002090601091828204019190066002029054906101000a900461ffff1661ffff16148015611c0b5750600060025414155b15611d0b57611c1d3360023402611fc8565b7f7c703c65b5b6a58c33a3a9afdaaba49f09c76e6dd631a22a835dd83b4d8df8d433346001604051808473ffffffffffffffffffffffffffffffffffffffff1673ffffffffffffffffffffffffffffffffffffffff1681526020018381526020018060200183151515158152602001828103825260058152602001807f426c61636b00000000000000000000000000000000000000000000000000000081525060200194505050505060405180910390a16040518060400160405280601981526020017f596f7520776f6e2120436f6e67726174756c6174696f6e7321000000000000008152509050611df5565b7f7c703c65b5b6a58c33a3a9afdaaba49f09c76e6dd631a22a835dd83b4d8df8d433346000604051808473ffffffffffffffffffffffffffffffffffffffff1673ffffffffffffffffffffffffffffffffffffffff1681526020018381526020018060200183151515158152602001828103825260058152602001807f426c61636b00000000000000000000000000000000000000000000000000000081525060200194505050505060405180910390a16040518060400160405280601481526020017f596f75206c6f73652e2054727920616761696e2e00000000000000000000000081525090505b919050565b6000809054906101000a900473ffffffffffffffffffffffffffffffffffffffff1673ffffffffffffffffffffffffffffffffffffffff163373ffffffffffffffffffffffffffffffffffffffff1614611ebc576040517f08c379a00000000000000000000000000000000000000000000000000000000081526004018080602001828103825260108152602001807f6572726f722d6f6e6c792d6f776e65720000000000000000000000000000000081525060200191505060405180910390fd5b806000806101000a81548173ffffffffffffffffffffffffffffffffffffffff021916908373ffffffffffffffffffffffffffffffffffffffff1602179055507f0eb9c250c9eed90eb7f27b8d23b6dad8b52a6dc3b5f75d07859fa66579976fdb81604051808273ffffffffffffffffffffffffffffffffffffffff1673ffffffffffffffffffffffffffffffffffffffff16815260200191505060405180910390a150565b600360009054906101000a900473ffffffffffffffffffffffffffffffffffffffff1681565b60008042604051602001808281526020019150506040516020818303038152906040528051906020012060001c905060258181611fc157fe5b0691505090565b600360009054906101000a900473ffffffffffffffffffffffffffffffffffffffff1673ffffffffffffffffffffffffffffffffffffffff16639adbf9e083836040518363ffffffff1660e01b8152600401808373ffffffffffffffffffffffffffffffffffffffff1673ffffffffffffffffffffffffffffffffffffffff16815260200182815260200192505050600060405180830381600087803b15801561207157600080fd5b505af1158015612085573d6000803e3d6000fd5b505050505050565b600360009054906101000a900473ffffffffffffffffffffffffffffffffffffffff1673ffffffffffffffffffffffffffffffffffffffff166379cc679083836040518363ffffffff1660e01b8152600401808373ffffffffffffffffffffffffffffffffffffffff1673ffffffffffffffffffffffffffffffffffffffff16815260200182815260200192505050602060405180830381600087803b15801561213657600080fd5b505af115801561214a573d6000803e3d6000fd5b505050506040513d602081101561216057600080fd5b810190808051906020019092919050505050505056fea26469706673582212207a67288aacecd635351cd34859dedb0c61fcd3f58a970c88b3597e2e56cf577264736f6c63430006000033",
  "source": "// SPDX-License-Identifier: MIT\npragma solidity >=0.4.22 <0.9.0;\n\nimport \"contracts/CasinoCoin.sol\";\n\ncontract RouletteCC {\n    \n    address public owner_address;\n    address public last_player_address;\n    uint256 public last_win_num;\n    CasinoCoin public token;\n\n    uint16[] public red_number = [0,1,0,1,0,1,0,1,0,1,0,0,1,0,1,0,1,0,1,1,0,1,0,1,0,1,0,1,0,0,1,0,1,0,1,0,1];\n\n    // truffle(development)> let test = await Roulette.deployed()\n    // undefined\n    // truffle(development)> test.addToContract({value: web3.utils.toWei('2', 'ether'), from: accounts[0]})\n\n    event PlayTheGame(address player_address, uint256 value, string game, bool results);\n    event UpdateAdminAdress(address new_admin_address);\n\n    modifier owner_only() { \n      require(msg.sender == owner_address, \"error-only-owner\"); \n      _;\n    }\n\n    constructor() public {\n        owner_address = payable(msg.sender);\n    }\n\n    function send_win(address to, uint256 value) private \n    {\n        token.Emit(to, value);\n    }\n    function take_lose(address from, uint256 value) private \n    {\n        token.burnFrom(from, value);\n    }\n\n    function ChangeOwner(address new_admin) public owner_only{\n        owner_address = payable(new_admin);\n        emit UpdateAdminAdress(new_admin);\n    }\n\n    function random() private view returns (uint256) {\n        uint256 rnd = uint256(keccak256(abi.encodePacked(block.timestamp)));\n        return (rnd % 37); \n    }\n\n\n    function Red(uint256 value) public payable returns(string memory){         \n        require( value <= token.GetAllowed(msg.sender, address(this)), \"Allow withdraw first\");\n\n        last_player_address = msg.sender;\n        last_win_num = random();\n\n         if(red_number[last_win_num] == 1){\n                send_win(msg.sender,value);\n                emit PlayTheGame(msg.sender, msg.value, \"Red\", true);\n                return \"You won! Congratulations!\";\n            }\n            else{\n                take_lose(msg.sender, value);\n                emit PlayTheGame(msg.sender, msg.value, \"Red\", false);\n                return \"You lose. Try again.\";\n            }\n    }\n    function Black(uint value) public payable returns(string memory){    \n        require( value <= token.GetAllowed(msg.sender, address(this)), \"Allow withdraw first\");\n\n        last_player_address = payable(msg.sender);\n        last_win_num = random();\n\n        if(red_number[last_win_num] == 0 && last_win_num != 0){\n            send_win(payable(msg.sender), msg.value*2);\n            emit PlayTheGame(msg.sender, msg.value, \"Black\", true);\n            return \"You won! Congratulations!\";\n        }\n        emit PlayTheGame(msg.sender, msg.value, \"Black\", false);\n        return \"You lose. Try again.\";\n    }\n\n    function BetOnNumber(uint16 number, uint256 value) public payable  returns(string memory){\n        require( value <= token.GetAllowed(msg.sender, address(this)), \"Allow withdraw first\");\n        last_player_address = payable(msg.sender);\n        last_win_num = random();   \n\n        if(last_win_num == number){\n            send_win(payable(msg.sender), msg.value*35);\n            emit PlayTheGame(msg.sender, msg.value, \"BetOnNumber\", true);\n            return \"You won! Congratulations!\";\n        }\n        emit PlayTheGame(msg.sender, msg.value, \"BetOnNumber\", false);\n        return \"You lose. Try again.\";\n    }\n    \n    function LowerHalf(uint256 value) public payable  returns(string memory){\n        require( value <= token.GetAllowed(msg.sender, address(this)), \"Allow withdraw first\");\n        last_player_address = payable(msg.sender);\n        last_win_num = random();\n        if (last_win_num <= 18 &&  last_win_num !=0) {\n            send_win(payable(msg.sender), msg.value*2);\n            emit PlayTheGame(msg.sender, msg.value, \"LowerHalf\", true);\n            return \"You won! Congratulations!\";\n        }\n        emit PlayTheGame(msg.sender, msg.value, \"LowerHalf\", false);\n        return \"You lose. Try again.\";\n    }\n\n    function UpperHalf() public payable returns(string memory){\n        last_player_address = payable(msg.sender);\n        last_win_num = random();\n        if (last_win_num >= 19 ) {\n            send_win(payable(msg.sender), msg.value*2);\n            emit PlayTheGame(msg.sender, msg.value, \"UpperHalf\", true);\n            return \"You won! Congratulations!\";\n        }\n        emit PlayTheGame(msg.sender, msg.value, \"UpperHalf\", false);\n        return \"You lose. Try again.\";\n    }\n\n    function Odd() public payable  returns(string memory){\n\n        last_player_address = payable(msg.sender);\n        last_win_num = random();\n        if (last_win_num % 2 == 0 && last_win_num != 0)\n        {\n            send_win(payable(msg.sender), msg.value*2);\n            emit PlayTheGame(msg.sender, msg.value, \"Odd\", true);\n            return \"You won! Congratulations!\";\n        }\n        emit PlayTheGame(msg.sender, msg.value, \"Odd\", false);\n        return \"You lose. Try again.\";\n    }\n\n    function NoOdd() public payable  returns(string memory){\n\n        last_player_address = payable(msg.sender);\n        last_win_num = random();\n        if (last_win_num % 2 == 1)\n        {\n            send_win(payable(msg.sender), msg.value*2);\n            emit PlayTheGame(msg.sender, msg.value, \"NoOdd\", true);\n            return \"You won! Congratulations!\";\n        }\n        emit PlayTheGame(msg.sender, msg.value, \"NoOdd\", false);\n        return \"You lose. Try again.\";\n    }\n}\n",
  "sourcePath": "/mnt/d/LW3/contracts/RouletteCC.sol",
  "compiler": {
    "name": "solc",
    "version": "0.6.0+commit.26b70077.Emscripten.clang"
  },
  "schemaVersion": "3.3.4",
  "updatedAt": "2021-05-17T10:00:25.477Z",
  "devdoc": {
    "methods": {}
  },
  "userdoc": {
    "methods": {}
  }
}